:100000008015002005070000773C0000F106000085
:10001000F1060000F1060000F106000000000000FB
:10002000000000000000000000000000C508000003
:10003000F10600000000000061080000F106000069
:10004000790A0000790A0000790A0000790A0000A4
:10005000790A0000790A0000790A0000790A000094
:10006000790A0000790A0000790A0000790A000084
:10007000790A0000790A0000790A0000790A000074
:10008000790A0000790A0000790A0000790A000064
:10009000790A0000790A0000790A0000790A000054
:1000A000790A0000790A0000790A0000790A000044
:1000B000790A0000790A0000790A0000790A000034
:1000C000790A0000790A0000790A0000790A000024
:0C00D000790A0000790A0000790A00009B
:1000DC0038B5114803F057FC104803F054FC0028C5
:1000EC0017DB0F4B0F4D9C684FF4003163690C48C4
:1000FC0098470B4863694FF000419847002808DB8C
:10010C00284603F05CFC00214FF4005003F05EF82D
:10011C00EAE7002038BD00BF20460000184600006A
:10012C00A444000020470000014B1B68184700BF87
:10013C0000000020014B1860704700BF0000002039
:10014C0030B585B004460D4610220021684604F0F7
:10015C006BF902238DF802302A46044B0193214699
:10016C00684603F0B3F905B030BD00BF350100009F
:10017C0080B505460E461746984603F041F80346EF
:10018C0004F05AF9DFF81890044649F8003042465A
:10019C0030463946A84754F8090000F02DFB00BF43
:1001AC00080000002DE9F047058B0446280790460F
:1001BC0011D4022905F0070540F0CD80204603F04C
:1001CC0074FC78B10138218B042811D8DFE800F0D9
:1001DC00C3106D85950001290CBF45F0100545F045
:1001EC002005258388F31188BFF36F8FBDE8F08756
:1001FC0001F0070AAA4500F0A6800027B9463E4642
:10020C00A368002B00F0BD8041F00801218388F326
:10021C001188BFF36F8FA168002900F0BB800D68B7
:10022C00002900F0B780D1F80480334652462046AE
:10023C00C047002D76D02B6829461D46F0E701F00B
:10024C0007035A1F012A1BD8002221F00701062B95
:10025C00276889B2C4E9002209D13B4603E0628BCE
:10026C00013262831B68002BF9D141F0020121831A
:10027C00204603F01AFC00287BD041F0200177E0E7
:10028C00042B0AD121F0070189B22183204603F007
:10029C000CFC10B141F020012183218B01F0070AE5
:1002AC00AA4550D00027B946AAE7236921F00701D7
:1002BC0041F00601062DD3F8009021832DD1B9F120
:1002CC00000F40D041F00801218388F31188BFF35F
:1002DC006F8F3A492046C84729E021F0070123696E
:1002EC0041F0040189B2042DD3F804902183E6D0A7
:1002FC0000273E464FF0040A82E721F007012369EC
:10030C0041F0050189B2052DD3F808902183D6D090
:10031C0000273E464FF0050A72E700273E464FF095
:10032C00060A6DE72B4687E7B9F1000FD1D14FF0E4
:10033C002003EFF3118883F31288BFF36F8F238BA5
:10034C0023F008032383258BEA062ED525F0100312
:10035C00238305F007056669218B002EBFF66FAF6E
:10036C0000232768C4E9003321F0070141F00101A3
:10037C002183218B01F0070AAA454FF000097FF475
:10038C003FAF002F9BD041F00801218388F31188E7
:10039C00BFF36F8F002FC7D03D68394633465246A6
:1003AC00204603F0AEFB2F46F4E7AB067FF51AAF01
:1003BC0025F02003238305F00705FFE63B3B0000F7
:1003CC00014B0360002070472846000030BFFFF748
:1003DC00FDBF00BF114B124A2DE9F041D518DFF8D3
:1003EC004480013DB5FBF3F55D430F4B08EB030473
:1003FC00013CB4FBF3F403FB04540E1B07460B49FE
:10040C00304604F003F8701942460021083E04F00F
:10041C000BF83E6704F10800BDE8F0810100000014
:10042C00000000000400000004000000044600006E
:10043C00044B99685869884203D003494FF08052A5
:10044C000A6070473C03002004ED00E070B5264BB9
:10045C0015469A6A12F0100F9A6A14BF11241024D0
:10046C0012F0080F9A6A18BF1224920706460AD592
:10047C00586B9A6A140634D519B19A6A22F0800224
:10048C009A62132401E06FF01500174B9A6A12F070
:10049C00010F9A6A18BF142412F0200F9A6A18BF21
:1004AC001524D20602D49B6A9B070AD50E4B5B68B7
:1004BC00190506D5314600F07BFA10B180F3098896
:1004CC000224094B9A6A920642BF5A6A22F40052DD
:1004DC005A629A6A42F0FF029A6200232B702046FD
:1004EC0070BD6FF01500CCE700ED00E0134B9A6A7D
:1004FC0012F0007F9A6A14BF1E201D2012F0807F1C
:10050C009A6A18BF1F2012F4002F9A6A18BF212074
:10051C0012F4802F9A6A18BF222012F4003F9A6AB4
:10052C0018BF232012F4803F9A6A6FEA02426FEAE6
:10053C0012429A6218BF2420704700BF00ED00E001
:10054C0010B5194B0246986A9C6A10F4805F14BF70
:10055C001720162014F4006F9C6A18BF1820A405ED
:10056C0009D5986B986A000404D51AB19A6A22F4DA
:10057C0000429A6219200C4B9A6A12F4806F9A6AA4
:10058C0018BF1A20D2050CD49B6A13F4005F18BF55
:10059C001C20054A936A43F47F43936200230B703B
:1005AC0010BD1B20F5E700BF00ED00E0F0B5484B97
:1005BC005B688BB00446C3F30803002585F31188F0
:1005CC00BFF36F8F02F07F40B0F17F4F11D102F07B
:1005DC000C0008280DD010074CBF0C46012500223A
:1005EC00033B8DF80720032B05D8DFE803F02463C9
:1005FC0067602C46F3E700239DF80720CAB902AECA
:10060C0004F1200720686168324603C20834BC42FA
:10061C001646F7D1099A002D54D0C2F3080121B91E
:10062C006FEA52226FEA4222099202A9184603F09D
:10063C0016FB0BB0F0BD264BDA6A9107DBD4DA6AF5
:10064C00002AD8DBDA6A5200D5D55A69A16942F47E
:10065C0080725A61BFF34F8FBFF36F8F5A6931F8B5
:10066C00021C22F480725A61BFF34F8FBFF36F8F5D
:10067C004DF6027291420AD09A6AD2B24AB10DF189
:10068C00070201212046FFF7E1FE0346B4E7236889
:10069C00B2E79A6A12F47F4F05D00DF107010120E1
:1006AC00FFF74EFFF1E79B6AB3F5803FA3D3FFF74B
:1006BC001DFFEAE70DF107020021E3E70DF1070149
:1006CC000020EDE722F4FF7222F00102ACE700BF3C
:1006DC0000ED00E0024A536943F010035361704788
:1006EC0000ED00E0EFF30880EFF3098101B57246ED
:1006FC00FFF75CFF01BD00BF002080F31488BFF33F
:10070C006F8F00F0FDFA00200D490860BFF34F8F8A
:10071C000C4880F3088800F03DF8202080F3118805
:10072C0009484FF40461401880F30988EFF31480F2
:10073C000221084380F31488BFF36F8F00F000F997
:10074C0094ED00E080150020C0070020BFF34F8F10
:10075C000549064BCA6802F4E0621343CB60BFF351
:10076C004F8F00BFFDE700BF00ED00E00400FA056D
:10077C000749D1F890200023C2F307221846934270
:10078C0000DB7047C1F89830C1F8A0000133F6E7E0
:10079C0000ED00E008B572B6002383F31388FFF771
:1007AC00E7FF144B4FF0FF32C3F88020C3F88420CE
:1007BC00C3F88820C3F88C20C3F89020C3F8942089
:1007CC00C3F89820C3F89C20C3F88021C3F8842177
:1007DC00C3F88821C3F88C21C3F89021C3F8942165
:1007EC00C3F89821C3F89C2162B6BFF34F8FBFF3B7
:1007FC006F8F08BD00E100E0084B9B6883420BD172
:10080C00EFF3058343B1064B5A6842F080525A60AD
:10081C005A6A22F400425A6203F05ABD3C0300208B
:10082C0000ED00E0094A93686FF00A0199670849E6
:10083C0058674B6843F080534B60002383F3118857
:10084C00BFF36F8F9368986F704700BF3C03002015
:10085C0000ED00E015498A684FF030001044EFF3CA
:10086C00098C80E8F01F202080F31288BFF36F8F73
:10087C000F4F4FF000664A698A603E604FF070047B
:10088C00141920680B4C2060506F0023536780F3C1
:10089C00118804B5104600F009F9BDE8044002F1D6
:1008AC00300090E8F01F8CF3098870473C0300205F
:1008BC0004ED00E0E80100201EF0040F0CBFEFF384
:1008CC000880EFF30980816911F8021C0229FFD01E
:1008DC0001B503F0C6F901BD40B2002807DB044A9C
:1008EC004109012300F01F00834042F8213070477A
:1008FC0000E100E0054B420900F01F0053F82220F4
:10090C00012303FA00F01040704700BF00E100E043
:10091C0040B20028A8BF00F1604001F10101B8BF4E
:10092C00064B4FEA4111ACBF00F5614000F00F00DF
:10093C00C9B2B4BF195480F80013704714ED00E02D
:10094C000B4A08B50B4B22F07F029A60BFF34F8F16
:10095C00BFF36F8FD3F8882022F47002C3F888207D
:10096C0002F002F802F052FC00F074F802F04EF8BB
:10097C000000000000ED00E042F8203C009B42F833
:10098C001C3C0A49019B42F8183C029B42F8143C5F
:10099C0021F001014FF0807342F8043C42F8081C2E
:1009AC000023203A02654367704700BF7D010000B9
:1009BC00094A0346906870B113F1160F006E05D00A
:1009CC00A0F140029A4205D8834203D2814228BF4B
:1009DC0000207047002070473C03002008B51446E7
:1009EC000A4A0B4B9060026F1A600D4600F05EF8DD
:1009FC00204685F30988002163B681F31188BFF383
:100A0C006F8F00220023FFF7B3FB00BF3C030020D5
:100A1C00E8010020014910220A60704710ED00E047
:100A2C0072B6404080F31188BFF36F8FBFF34F8FC6
:100A3C0030BF62B6BFF36F8F704700BF72B64940CC
:100A4C0081F31188BFF34F8F20BF80F3118862B6FA
:100A5C00704700BF044800232021C2180133272B04
:100A6C0082F80013F9D1704700E100E001B5EFF313
:100A7C000580A0F110004FEAC0000449014409C9E7
:100A8C009847BDE80140024908470000CC440000EB
:100A9C003D040000024B034A0348012100F040B81A
:100AAC00000001200000002028460000026E054BCB
:100ABC00403A1A60044A4021C3E901121846012148
:100ACC0000F038B8EC01002000000B15084AC2F801
:100ADC0098000B6823F01F03034343F01003C2F884
:100AEC009C308B6843F00103C2F8A030704700BF04
:100AFC0000ED00E0044B0522C3F89420BFF34F8FA8
:100B0C00BFF36F8F704700BF00ED00E0BFF35F8F46
:100B1C00024B0022C3F89420704700BF00ED00E0A8
:100B2C0010B5034C0123227803F0BAF8207010BDE5
:100B3C006C03002008B5094A0023127803F0B0F8C2
:100B4C0010F1160F03D0064B0022072800DD08BD5C
:100B5C00C3F89800C3F8A0200130F6E76C0300201E
:100B6C0000ED00E0F0B5454D2C68082C85B000F286
:100B7C008280FFF7CBFF00200C2684420DD1404D24
:100B8C00404F2C706846FFF71BFC00240646A6421B
:100B9C000AD1FFF7AFFF00201CE0696806FB0011CB
:100BAC00FFF794FF0130E8E7009800EB04114FEADF
:100BBC00041CCB683B40B3F5000F4AD00CD8B3F5FE
:100BCC00001F30D0B3F5800F38D0B3F5801F12D092
:100BDC006FF0150005B0F0BDB3F1807F42D0B3F1DA
:100BEC00007FF5D150F80C3088684A6803F048F85B
:100BFC0040F4802009E050F80C3088684A6803F013
:100C0C003FF840F0885040F43020039028780728B3
:100C1C00CDE90123DCD801A9FFF758FF2B7801336C
:100C2C002B700134B3E750F80C3088684A6803F035
:100C3C0027F840F0885040F40020E6E750F80C30DC
:100C4C0088684A6803F01CF840F0E06040F400301B
:100C5C00DBE750F80C3088684A6803F011F840F074
:100C6C008270D2E750F80C3088684A6803F008F8B4
:100C7C0040F08870C9E74FF0FF30ABE73446000016
:100C8C006C0300200000F0FF08B5024B1B6898476E
:100C9C00002008BDF8010020034B044A186093782B
:100CAC0043F0020393707047F80100200400002009
:100CBC0008B50649064821F00701C1F1005202F5BA
:100CCC00803202F0B5FE002008BD00BFC715002021
:100CDC00FC010020044A0123C2F840354FF0804249
:100CEC000020C2F87835704700E0014020B1034B7A
:100CFC00800143F001031847704700BF1046000005
:100D0C0000F0A0BF084B70B5C31A0D4607499B10E5
:100D1C00044659430648402203F011F82B4601467D
:100D2C002046BDE8704018471C020020B76DDBB6AA
:100D3C009044000073B50C4C0C4A4023041B0093E8
:100D4C000D460B460A49A41061430646094803F0B8
:100D5C0023F8011E05DA30462B4602B0BDE8704080
:100D6C00184702B070BD00BF1C020020113E0000ED
:100D7C00B76DDBB69044000010B54FF02003EFF3D5
:100D8C00118483F31288BFF36F8F074A136823F023
:100D9C000201DB07116002D4012003F039F984F35E
:100DAC001188BFF36F8F10BD6C020020002270B54C
:100DBC00012104461046FFF7ABFD0F4801F02AF95C
:100DCC000E4B984215D101F035F926690C49304685
:100DDC0002F0BBFE00280BDB0125356424690849B1
:100DEC0004F11C0002F0B1FE002801DBE5640020D8
:100DFC0070BD6FF00400FBE7450E00000000AD0B6A
:100E0C005446000070B501460C2309484B43C418E6
:100E1C00D4E90E56403300221844A26302F07CFF42
:100E2C002DB132462B460348BDE87040184770BDC3
:100E3C001C0200209044000010B1012804D070471F
:100E4C00034B1B6C5B0701D1FFF7DCBF704700BF86
:100E5C001C02002008B54FF02003EFF3118183F33F
:100E6C001288BFF36F8F124A136843F002001060B0
:100E7C00DA0708D481F31188BFF36F8F0120BDE826
:100E8C00084001F0E9B84FF08043D3F80C24D3F8B4
:100E9C000C34DB07EED5074802F03EFF81F31188D6
:100EAC00BFF36F8F0020BDE80840FFF7ABBF00BF5A
:100EBC006C0200205C0200201FB500220123CDE94A
:100ECC000223094ACDF800D06B46CDF804D002F0CD
:100EDC0092FF002805DB4FF480420023684601F0A6
:100EEC00B3FE05B05DF804FB293E000010B5074CBD
:100EFC0023782BB94FF4A57003F007F90123237065
:100F0C00BDE81040002001F0A7B800BF6D03002021
:100F1C002DE9F0413849BFF35B8F0746012251E8B8
:100F2C00003F41E800200028F9D1BFF35B8F33B9B3
:100F3C00324933484B60CB608A6002F019FE7B1E4D
:100F4C00012B2BD8012F07D14FF08043D3F81C3441
:100F5C0003F00303012B21D003F0EBF80546F8B99D
:100F6C00284B1B78E3B14FF080430222C3F80823CF
:100F7C000646DFF894804FF08044D4F81824D4F857
:100F8C001834D20316D503F00303012B01D0012F23
:100F9C0010D15DB386F31188BFF36F8FBDE8F0817C
:100FAC004FF02003EFF3118683F31288BFF36F8F9A
:100FBC000125DEE7ADB13046FFF740FDD4F818351A
:100FCC00002BDAD1D4F80421002AD6D0C4F804318D
:100FDC00D4F804310123C4F81835C8F88031A36063
:100FEC00CBE70021212002F0F1F8E7E74FF0804336
:100FFC000222C3F80423D1E71802002008020020C3
:10100C00380200208007002000E100E008B5074806
:10101C0003F080F838B10648FFF73EFE0448FFF7AE
:10102C0089F8002008BD6FF01200FBE7B8440000FF
:10103C00411000000A2838B5074D044604D1AB68AE
:10104C000D215B6828469847AB6803485B68E1B2A2
:10105C009847204638BD00BFB844000038B54568F5
:10106C002B69B3B11035284601F0E6FA044680B975
:10107C000146284601F0A8FA084B98420BD10849C2
:10108C002246284601F088FA224605210620FFF761
:10109C003FFC002038BD6FF00400FBE70000AD0BF7
:1010AC00B1100000430970B507D10B4B596821B141
:1010BC0001250C68094E854001B970BD8A682A402B
:1010CC0002D04B68304698471CB1236821461C4619
:1010DC00F2E72346FAE700BF70020020A4440000A8
:1010EC002DE9F043476840F20636D0063B7B87B0CB
:1010FC0002EA060654BFC2F34010032001F01F059C
:10110C00B6F5837F144645EA43158DF8030042D0AB
:10111C000FD8062E18D007D8B6B1022E3DD06FF0DE
:10112C00150007B0BDE8F083B6F5807FF7D1012636
:10113C000AE040F20222964231D0B6F5407F30D020
:10114C00B6F5007FEBD1022622032CD57A68012359
:10115C008B40C2F808353B696BBB05F01F026D096B
:10116C0076D1920002F1A04284F48031D2F800379B
:10117C00C1F30041C4F3404423F4E16344EA410465
:10118C0023F007031C4344EA800444EA0624C2F813
:10119C0000470020C5E70726D6E70426D4E7052636
:1011AC00D2E70326D0E7630341BF01237A688B4063
:1011BC00C2F80C35CFE710370DF10202294638463C
:1011CC0001F0F0F914F4403F80460CD12946384622
:1011DC0002F090FF214B9845DBD19DF80210384668
:1011EC0001F034FAD5E701AB4FF0000903AA294608
:1011FC003846CDE90439CDE90199CDF80C9001F0D0
:10120C00A5F8164B98428AD114F4003315D09DF8EA
:10121C0003308DF80E3084F48034C4F300444B4614
:10122C0003AA294638468DF80C608DF80D4001F064
:10123C003DF90A4B9842CDD071E7CDE9043303AAAE
:10124C000DF1030329463846039301F07FF8F0E7CC
:10125C0002F5E07253F82230FFDE00BF0000AD0B48
:10126C00F0B54068057B01F01F0444EA451405699C
:10127C0087B0002D60D0B2F5001F00F1100506D12B
:10128C002146284602F038FF002007B0F0BD01AE21
:10129C000027B2F5800F0197776038D1B3F1007F4A
:1012AC0014BF052304238DF804300023CDE9046317
:1012BC000393836823FA01F111F0010119D1B2F102
:1012CC00A07F16D104F01F03620903F5E07339D136
:1012DC004FF0A04252F82330DB070AD40DF103067D
:1012EC0032462146284601F05DF9184B984219D038
:1012FC00029603AA2146284601F028F8144B98427E
:10130C001DD101222146284601F0ACF9BCE7B3F10E
:10131C00C06F05D0B3F1007F14BF01230223C2E7D5
:10132C000323C0E73146284601F096F9084B984252
:10133C00DED06FF00B00A8E76FF08500A5E76FF02B
:10134C001500A2E751F82330FFDE00BF0400AD0BFF
:10135C000000AD0B2DE9F041594D5A4E00EB8101C7
:10136C00814202D10020BDE8F081046814F4805F52
:10137C00C4F3432704F07F0340F08E807F2B4FEAA9
:10138C001444EF5D08BF4FF0FF33192C00F2878037
:10139C00DFE804F00D13191C1F251C858585853687
:1013AC006185858585858585858564797C7FC2F891
:1013BC000C355C1C5CD10430D2E7C2F814355C1CD3
:1013CC00F9D000245DE0C2F80835F2E7C2F8103518
:1013DC00F5E75C1CC2F80835EDD0002404E05C1C79
:1013EC00C2F80C35E7D001245FEA531C5AD14FF0F8
:1013FC00010E4FF0A04C0EFA03F8CCF80C8508E067
:10140C00C2F80835002FDAD15C1CD4D00024A646D3
:10141C000627D0F8008008F4005CBCF1000F1CBF5C
:10142C004FF0000E012403F01F0C5B0942D14FEA70
:10143C008C0C0CF1A04CC8F3C118DCF8003733400D
:10144C0043EA880343EA072343EA0E0343EA4403CF
:10145C00CCF80037AFE7C2F80C35D3E7C2F86035EB
:10146C00B3F1FF3F0468A6D0C4F38034002CBAD08B
:10147C005C091BD101244FF0A04C04FA03FECCF8FC
:10148C0008E5A646C5E7C2F86435E9E7C2F8683551
:10149C00E6E7C2F86C35E3E76FF0150063E76FF031
:1014AC00850060E70023C3F80C35FFDE0023C3F88A
:1014BC000835FAE70CF5E07C002353F82C30F4E700
:1014CC0059470000F0F8FCFF2DE9F34100220646D5
:1014DC0001210220FFF71CFA0220FFF7FDF97768C3
:1014EC0035693C680021C4F800152E60D7F80C80D3
:1014FC0001AA404602F0EAFC0028C0F2CC80019B15
:10150C00D8F8002019791868FFF724FF0028C0F2DA
:10151C00C2806B7A012B26D1AB7A032B23D1E87ACC
:10152C0008B101281FD12A7A12B1022A1BD10E222E
:10153C006B687168B3F5164FD1F800C000F0AE803F
:10154C0032D8B3F5165F00F0AC8018D8B3F5966FAF
:10155C0000F0A9800AD8B3F5967F00F0A780B3F508
:10156C00167F00F0A6806FF0850094E0B3F5166F3F
:10157C0000F0A280B3F5965FF5D15B4B41E0B3F57B
:10158C00E14F00F09C8008D8B3F5615F00F09980C2
:10159C00B3F5964FE7D1554B33E047F612218B420A
:1015AC00E1D14FF400032CE0B3F5613F00F08B80E8
:1015BC0015D8B3F5963F00F089800AD84DF6C021B6
:1015CC008B4200F08580B3F5614FCCD14FF46B03A7
:1015DC0017E0B3F5E13FC6D14FF0EB7311E0B3F573
:1015EC00612F78D008D842498B4277D0B3F5E12FE0
:1015FC00B9D14FF0E86304E03E498B42B3D14FF0D0
:10160C0080533169CCF8243573681B680243C3F8E6
:10161C006C250B1DD5E9010183E803007B68990754
:10162C0012D505F1180001F00FF9334B984258D13F
:10163C00287E04F10C0204F5907102F0DFFC2B7E85
:10164C000120984000F07EFC0823C4F800353B7A5A
:10165C0053B9C4F81031D4F810316B69C4F834356F
:10166C000123C4F8383523607B689A075CBF4FF4BC
:10167C008073C4F804337B68DB0644BF4FF48003EB
:10168C00C4F804332B69C4F8443500200123C4F892
:10169C004805A360E36002B0BDE8F0814FF41D0380
:1016AC00AFE7164BADE74FF49E23AAE74FF4A033F8
:1016BC00A7E74FF41C33A4E74FF41D23A1E7104B0D
:1016CC009FE7104B9DE74FF06C739AE70E4B98E732
:1016DC004FF4650395E74FF0706392E74FF080632A
:1016EC008FE76FF00400D6E700B0130000A04E00A7
:1016FC0090D0030040420F000000AD0B00502700BB
:10170C0000C0750000F03A0000903A01F8B50446AC
:10171C0007690D4602F00DFDB0B92E4B1B789BB13D
:10172C006426606802F000FC00BB012002F064FC3F
:10173C00013EF6D10021212001F048FDF0E786F3AF
:10174C001188BFF36F8FF5E74FF02003EFF311868D
:10175C0083F31288BFF36F8F6068314602F0E4FBAD
:10176C0090B986F31188BFF36F8FEDE74FF020032C
:10177C00EFF3118683F31288BFF36F8F60683146E5
:10178C0002F0D2FB0028DAD03B691D706268386920
:10179C001368C3F844050120C3F848050020C3F8BA
:1017AC002001D3F82051C3F858015268D3F85801DE
:1017BC00D20608D5626812680820C2F800054FF4FA
:1017CC008002C3F8042301229A6081F31188BFF3CD
:1017DC006F8FF8BD8007002070B5012383400E4A3F
:1017EC00BFF35B8FDC4352E8001F01EA040542E8BB
:1017FC000056002EF7D1BFF35B8F4FF4803282403E
:10180C000648C0F80823BFF35F8FBFF36F8F0B42FE
:10181C0014BF0120002070BD800200200010014088
:10182C0070B40E49D1E90034D01AC31844F1000445
:10183C0022F07F46C1E90034A6F50013B3F5400F42
:10184C0009D2074B1B681A0A1B069C19054B42F15F
:10185C000005C3E9004570BC01F0AEBDB800002026
:10186C0084020020C000002011B3BFF35B8F012362
:10187C00104A834052E800CF4CEA030C42E800C106
:10188C000029F7D1BFF35B8F0B4A4FF480338340B1
:10189C00C2F80433094BBFF35B8F1B68BFF35B8F3C
:1018AC00C340DB0742BF064B4FF40032C3F80021A4
:1018BC00704700BF80020020001001407C02002015
:1018CC0000E100E00D4B1868010A0006BFF35F8FC2
:1018DC000B4BD3F80435181841F10001B3F5801FF8
:1018EC000AD2084BD3E90023904271EB030303D2D5
:1018FC0010F1807041F10001704700BF840200209C
:10190C0000100140C00000202DE9F04F85B01646B4
:10191C001F469DF840A00446FFF75EFF0190FFF7BD
:10192C00D1FFB04271EB070354D23E4B301A67EB38
:10193C000101984271F100014FD23B4B03EB0413B0
:10194C00D3E902239F4208BF96425ED037494FF439
:10195C00803804F1500508FA04F8AD00C1F848834A
:10196C002046ADB202F029FB26F07F4B05F18045F5
:10197C0004F5A87305F58835DC464FF0030902938E
:10198C00029A2CF07F4341F82230C1F84483D1F8FD
:10199C000435274A6FF00200C01A604420F07F40E3
:1019AC00904232D9286868B1D1F804350393A3EB7F
:1019BC000B0020F07F40B0F5000F26D9204602F036
:1019CC00FCFA039BBAF1000F07D109EB030C09F1E8
:1019DC000109D5E7BAF1000F09D06FF015052046C3
:1019EC000199FFF741FF284605B0BDE8F08F0123B0
:1019FC00104ABFF35B8FA34052E8000F184342E834
:101A0C0000010029F8D1BFF35B8F07490E98230121
:101A1C0001EB0412C8500F9B5360C2E9026700250A
:101A2C00DDE700BF01008000A8000020001001408D
:101A3C00FDFF7F007C0200207FB51C4C1C4BC4F8C2
:101A4C000833C4F848331B4B00254FF0FF304FF0E0
:101A5C00FF31C4F80855C3E902014FF48033C4F8D0
:101A6C000433154B02264FF400320121C4F80463F1
:101A7C001120C3F880212A46FEF74AFF1120FEF7F9
:101A8C002BFF0E4A0123A360236013600C4B0D4AFD
:101A9C000093CDE9015500232846FFF735FF30466A
:101AAC00FFF736FA284604B070BD00BF00100140A5
:101ABC0003000F00A800002000E100E080020020DD
:101ACC002D180000FFFF7F002DE9F7432F4CD4F8B1
:101ADC00043399070BD5D4F8043143B12C4A0023B5
:101AEC00C4F80431D4F80431136801331360D4F80A
:101AFC000433DA032AD5BFF35B8F264B53E8002F50
:101B0C0022F0010143E800100028F7D1BFF35B8FEE
:101B1C00D30702D4D4F84031C3B10025C4F84051E6
:101B2C00D4F84031FFF7CEFE4FF02003EFF31182D3
:101B3C0083F31288BFF36F8F174BD3E90267B04260
:101B4C00B94106D282F31188BFF36F8F03B0BDE8A1
:101B5C00F0834FF0FF384FF0FF39C3E90289D3E926
:101B6C0000101D604FF48033C4F84833C4F8405162
:101B7C00D4F8403182F31188BFF36F8F0029E5D080
:101B8C00009032463B4628468847DFE7001001406C
:101B9C00840200207C020020A800002030B5431CE9
:101BAC00124C85B005D08442A8BF0446012CB8BFA6
:101BBC000124FFF787FE0E4B0C4DD3E90013401A9E
:101BCC00B0F5000F10D22218AA4228BF2A4652188C
:101BDC004FF0000007490091CDE9010043F10003EB
:101BEC00FFF792FE05B030BD2A46F0E7FFFF7F00FD
:101BFC00B80000202D18000008B5FFF763FE024B5B
:101C0C001B68C01A08BD00BFB80000204FF070431D
:101C1C0093F8E02F062A09D1D3F8E83FC3F3031356
:101C2C00033B042B02D8024AD05C7047002070475B
:101C3C007E470000024AD2F80034002BFBD07047DC
:101C4C0000E0014010B502F0C8F940B14FF08053EC
:101C5C008E4AD3F82433C3F30423C2F84035FFF77C
:101C6C00D5FF10B18A4B8B4A5A6702F0B6F948B1CE
:101C7C004FF080534FF08042D3F84432C3F34233D9
:101C8C00C2F83C35FFF7C2FF30B1834AD2F8FC30C2
:101C9C0023F08073C2F8FC3002F09FF940B14FF092
:101CAC0080430022C3F80C21C3F81021C3F8382557
:101CBC00FFF7ACFF20B14FF080430322C3F8A025FF
:101CCC00FFF7A4FF60B1754B0522C3F81026012263
:101CDC00C3F888260022C3F818263F22C3F814261E
:101CEC004FF08053D3F83021511C09BF4FF0704393
:101CFC00D3F8343193F8E02FD3F8E83F08BFC3F39F
:101D0C000313062A4DD1033B042B03D8644AD35C3E
:101D1C00002B46D04FF08052624BD2F80414C3F81B
:101D2C002015D2F80814C3F82415D2F80C14C3F8F3
:101D3C002815D2F81014C3F82C15D2F81414C3F8C3
:101D4C003015D2F81814C3F83415D2F81C14C3F893
:101D5C004015D2F82014C3F84415D2F82414C3F853
:101D6C004815D2F82814C3F84C15D2F82C14C3F823
:101D7C005015D2F83014C3F85415D2F83414C3F8F3
:101D8C006015D2F83814C3F86415D2F83C14C3F8B3
:101D9C006815D2F84014C3F86C15D2F84424C3F873
:101DAC00702502F01AF948B14FF080534FF0804281
:101DBC00D3F8583203F04F03C2F8E43E02F00DF9A9
:101DCC0048B14FF08043D3F80024D20744BF6FF0E2
:101DDC000102C3F800244FF08053D3F83021062AB7
:101DEC0026D1D3F83431033B042B02D82E4AD35CD2
:101DFC0063B12E4AD2F83C3743F48063C2F83C37C7
:101E0C004FF08053D3F83031062B11D14FF0805363
:101E1C00D3F83431033B042B02D8254AD35C3BB1B5
:101E2C004FF01023D3F808224FF08043C3F8582505
:101E3C004FF01023D3F80022002A03DBD3F804322E
:101E4C00002B22DA1B4901234FF01020C1F8043576
:101E5C001524FFF7EFFEC0F80042FFF7EBFEC0F8C9
:101E6C000442FFF7E7FE0023C1F80435FFF7E2FE5A
:101E7C00BFF34F8F0849104BCA6802F4E06213435A
:101E8C00CB60BFF34F8F00BFFDE710BD00300140AA
:101E9C0000C007400DF0ADBA00ED00E0005000406E
:101EAC007947000000C0004074470000001000405B
:101EBC006F47000000E001400400FA0530B50468EB
:101ECC00CCB1BFF35B8FB4FA84F3C3F11F03DBB265
:101EDC0001229A4024EA020250E8005FA54204D194
:101EEC0040E8002CBCF1000FF6D1BFF35B8FE6D1BC
:101EFC0002480B7030BD0248FCE700BF0000AD0B80
:101F0C000200AD0B10B50368CB40DB0714D40123E2
:101F1C008B400268BFF35B8F43EA020150E8004F2D
:101F2C00944204D140E8001CBCF1000FF6D1BFF381
:101F3C005B8FEED1014810BD0148FCE70000AD0BF2
:101F4C000400AD0B014BC3F80405704700F00140D1
:101F5C00F7B5044618B1012823D003B0F0BD4FF0FB
:101F6C0080430222C3F808230122DA60C3F804017B
:101F7C00D3F80431064601238DF8073042F2107570
:101F8C004FF08047D4B1012CE7D1D7F80C3403F4CF
:101F9C008033AEBB83B3012002F02EF8013DF4D1A7
:101FAC002AE04FF080430022C3F808035860C3F8BE
:101FBC000021D3F800310DF10706DCE7D7F818340F
:101FCC0003F480333EB9002BC7D0012002F014F883
:101FDC00013DF3D1C1E7D7F8182402F003023260B7
:101FEC00002BBAD09DF80700012803D102F004F8A9
:101FFC00013DC7D1012CB0D1054B00225A71ACE781
:10200C00D7F80C2402F001023270002BEAD1F3E76E
:10201C0088020020044B1A7922B9012218609A8098
:10202C000248704702487047880200200000AD0B40
:10203C000C00AD0B08B5074B1B682BB10020FEF74D
:10204C0059FC08B9FEF748FC4FF080430022C3F856
:10205C00182508BD8802002038B5B0B1012855D12B
:10206C004FF080420023C2F80031D2F80021304AF0
:10207C0003F18043012119602E4B1B68002B50D0BB
:10208C004FF08043C3F8040340E04FF08043D3F893
:10209C001814D3F81824C8032AD502F00303012B13
:1020AC0004D013B10020FFF753FF00234FF0804200
:1020BC00C2F818350023C2F80431D2F804311E4A94
:1020CC00D2F8FC0040F08073C2F8FC301B4B1C684B
:1020DC0044F0010119605D685968491BB1F50A5F4C
:1020EC00FAD31C60C2F8FC000823154A0220BFE793
:1020FC00D3F81424D107D8D5D3F81C249207D1D403
:10210C000C4A12681AB10222C3F8042338BDD3F862
:10211C000421002AFBD00022C3F80421D3F8043197
:10212C00F4E71368002BFCD0002313601368EDE771
:10213C00000100408802002000ED00E0001000E0EB
:10214C000401004010B54FF08043D3F800216AB170
:10215C000022C3F80021D3F800210122C3F8082380
:10216C00114B587910B95A711B6898474FF080433E
:10217C00D3F8042172B10022C3F80421D3F804214E
:10218C00D3F81824D3F81824920704D10122C3F8E9
:10219C0018259A6010BD0222C3F80823024BBDE833
:1021AC0010401B68012018478802002070B500F110
:1021BC0008030C4C34F81330DA0505460E4607D5E7
:1021CC00C3F3432304EBC30254F8333052689847EB
:1021DC00A3682BB1E26831462846BDE87040184729
:1021EC0070BD00BF3000002010B4C0B2114A0830DE
:1021FC0032F81030D9051BD5C3F3432123F4F8531F
:10220C0022F8103002F10E04002034F8023F13F4CF
:10221C00807F03D0C3F34323994209D00130202897
:10222C00F3D1002342F83130034810BCFFF76ABEEB
:10223C0010BC70473000002088000020F0B5054627
:10224C0000200446012607468C420BD1114BD3F8D3
:10225C007C2132B10022C3F87C21D3F87C3140F0D0
:10226C000040F0BDE3B29B0003F580729B0806FAB8
:10227C0003F31D420BD002F1804202F5C042D2F8AA
:10228C0000C0BCF1000F02D0176012681843013473
:10229C00DAE700BF00600040CBB2024608330846C4
:1022AC000C4931F81330990611D599070FD41068E1
:1022BC005B0B01219940C0F80813126802EB8303F1
:1022CC00D3F8102522F00302C3F810257047002123
:1022DC0001F0F3BE30000020F7B5CDB2174E083533
:1022EC00074636F81530DB070C4624D5FFF7D4FF2C
:1022FC0036F815309A0606D55B0B3A6803F5A273CF
:10230C00002142F823102046FFF76EFF002301A89E
:10231C0026F81530019401F07DFE019B00EB830043
:10232C00074BD0F80027134043F00203C0F80037E6
:10233C00044803B0F0BD0448FBE700BF30000020A8
:10234C00F0F8FCFF0000AD0B0400AD0B2DE9FF41D4
:10235C00136807460C461546FBB1CEB2DFF83C813C
:10236C00083638F8162002F02202222A22D0002247
:10237C00CDE900228DF80E208DF80F200DF10E0105
:10238C000DF10F02204601F04FFE38F8163023F005
:10239C00020343F0010328F816306B684BB393F833
:1023AC0000C05A683D4EE3B2083336F81310880764
:1023BC0002D5B2B13A481FE021F02001C904C90C82
:1023CC0026F813106AB1BCF1030FF3D86A683868A9
:1023DC0052681278BCF1000F11D102F5A27240F8CC
:1023EC0022C036F8132022F01C0242EA8C0226F896
:1023FC001320AB6843BB2B4804B0BDE8F08100EB65
:10240C00820041EA4231D0F810E52EF0030EC0F8FC
:10241C0010E53F6807EB820741F02001D7F8100563
:10242C0026F8131020F4473020F44070C7F810053C
:10243C002002D7F810E500F4F85040EA0C4040EACE
:10244C000E00C7F81005CCE7D3E900672046FFF76C
:10245C00CBFE002ECFD0114DD5E90023964203D1EF
:10246C009F4201D1002209E00F480DF10F01FFF747
:10247C0025FD0C4B9842BFD19DF80F2045F83260DA
:10248C00E4B205EBC20308345F6035F8143043EA5C
:10249C00422343F4807325F81430ACE7300000205D
:1024AC000400AD0B0000AD0B880000202DE9FF41AE
:1024BC0007460C461E4612B3CDB2DFF8D080083565
:1024CC0038F81530980701D4990621D413F01C0F55
:1024DC0002D05378012B1BD001238DF80F30002331
:1024EC00CDE900230DF10F01931C2046013201F0C0
:1024FC009BFD38F8153043F0030328F81530002EF7
:10250C0042D0E1B2214D083135F81120930703D4A4
:10251C001F4804B0BDE8F08196F800E0D7F800C081
:10252C0022F020020EF5A270D2040023D20C4CF83B
:10253C00203025F8112096F801C0BCF1000F23D0F3
:10254C003868B67800EB8E004FEA0C4CD0F810359A
:10255C0023F4981323F4F853C0F81035230203F432
:10256C00F8530CF4403C3605D0F8107543EA0C03D4
:10257C0006F4801642EA4E32334342F020023B43CB
:10258C0025F81120C0F810350248C2E730000020B1
:10259C000400AD0B0000AD0B014BC3E902127047F8
:1025AC0030000020C9B20831044B33F811309906C1
:1025BC0043BF5B0B02481370024870473000002089
:1025CC000000AD0B0400AD0B70B5184E96F86040D2
:1025DC0005464CBB2146402206F1100001F024FFB9
:1025EC002D68306D2146884212D10023C5F87C310C
:1025FC0045F30730D5F87C31FEF76EF94FF0004308
:10260C00C5F804330A48012386F86030B36570BD01
:10261C00CBB29B0003F580727C2B08BFAC5001F150
:10262C00010108BFAB58DEE70248F0E7300000209C
:10263C000000AD0B0C00AD0B034B93F860000038A1
:10264C0018BF0120704700BF300000200148FFF781
:10265C0059BC00BF840000200148FFF72FBC00BF0D
:10266C008400002073B5CBB20C4608331D4931F8F9
:10267C00133099061AD513F0020617D15B0B9C0088
:10268C00056804F580716E50695801682144D1F8D1
:10269C00104544F00104C1F810452AB1016801222B
:1026AC0002FA03F3C1F8043302B070BDC3F3820322
:1026BC00042B12D0052B12D001A8019401F0AAFC16
:1026CC00019AD0F81035D34003F00103991C204631
:1026DC0002B0BDE8704001F0F0BC0321F7E7022125
:1026EC00F5E700BF300000202DE9F347544B554F60
:1026FC00D3F80403396DC0B240F00040FFF79EFDE3
:10270C00051E18DA0023F96D0093684601F0E4FC0D
:10271C004FF0010897F85C30DA075AD4396D4FF056
:10272C000040FFF78BFDF96D684601F0D5FC0028E1
:10273C00F0D125F000450124002D69D102B0BDE88F
:10274C00F08794FAA4F4B4FA84F4E00804F10803D2
:10275C0004F0070237F813901DF80030019408FAC2
:10276C0002F223EA02030DF8003001A801F052FC3A
:10277C00019B03F5E0734FEA990150F82360C9F30C
:10278C00820A4B07D146C6F3014626D52046514650
:10279C00FFF70CFD01A8019401F03CFC019B03F533
:1027AC00E073F6B250F82330C3F301439E4207D1D5
:1027BC000021204601F081FC3146204601F07DFCD1
:1027CC0001A8019401F026FC019B08FA03F3C0F860
:1027DC002035009C002CB4D1A0E7022E0CD1032193
:1027EC00204601F06AFC0AF00503012BE8D14946AA
:1027FC002046FFF7DBFCE3E70221204601F05DFCFD
:10280C00BAF1030FF3D0032EDAD1BAF1020FEDE7D0
:10281C0095FAA5F3B3FA83F304FA03F29B0003F1E0
:10282C00804303F5C04325EA0205D3F81005D3F81D
:10283C001015C0F30420C1F30141FFF7B7FC7BE78F
:10284C00006000403000002001460148FFF736BB15
:10285C009400002008B5144BA8220021184601F062
:10286C00E3FD0322026111494261114A8161C26197
:10287C004FF480620262002282624262C26201668E
:10288C000C4941661021816603460267C2664267A5
:10289C00BFF35F8F084911F8010D98540132102ACB
:1028AC00F9D1BFF35F8F08BD900200208347000071
:1028BC0080030020700300209C47000038B54FF0C7
:1028CC002003EFF3118583F31288BFF36F8F064B50
:1028DC009C6801F07EFB85F31188BFF36F8F204657
:1028EC00BDE83840FDF788BF3C030020104B70B5A5
:1028FC0053F82040013053F82060A64200D870BD38
:10290C00D4E9003595B153B12846984738B1002821
:10291C00B8BF4042EB68FF28A8BFFF201870EA68D8
:10292C00537843F0010353700834E6E79847FBE70C
:10293C000847000008B50A4B012203201A70FFF764
:10294C00D5FF00F0BDFD0420FFF7D0FF00F00CF91F
:10295C00FDF7BEFB034A137B23F00103137308BD81
:10296C00800700204801002008B50348034A0021D5
:10297C00121A01F0DAFB08BDA80000208407002021
:10298C0070B5002386B00122CDE90423194E1A4DEF
:10299C0001930F22CDE902321849142303FB005591
:1029AC0006EBC01604464FF4C070154B00954FF45F
:1029BC00A07200FB0411304600F096F8737B114AAC
:1029CC00EE6023F0040373734FF4046304FB0333CE
:1029DC0013446B600C4B2C74BFF35B8F53E8001FDC
:1029EC00013143E80012002AF8D1BFF35B8F06B027
:1029FC0070BD00BFC80000203C0300200010002068
:102A0C004B410000C00700203803002080B5002097
:102A1C00A6B0FFF76BFF2D4B83F308882C4D2D4E82
:102A2C006B692D4F43F400736B610024E02385F830
:102A3C002230EC772C766C76AC7685F820406B6A7D
:102A4C0043F4E0236B6285F82340FDF743FEFDF76A
:102A5C00E1FF4FF0FF33AB62EB62FEF783F8FEF75A
:102A6C0019F840F20113ADF8243006ABB360CDE990
:102A7C001E44219401F04DFB0120FFF737FF02208B
:102A8C00164DFFF733FF00F017FB154B75610593DF
:102A9C00012314490094CDE903434FF480623B4673
:102AAC00CDE90144284600F01FF86A7B064622F067
:102ABC00040228466A7301F088FB2046FFF760FF8A
:102ACC003A4631462846FDF789FF00BF001000202A
:102ADC0000ED00E03C0300204129000048010020EB
:102AEC009D470000801100202DE9F04385B007328E
:102AFC00994600F1580322F00706C0E91633109BE3
:102B0C00037306F140050423002743730D440F9B08
:102B1C0083738846C0E9067729468760C7730446E5
:102B2C00FDF758FC08F140030730C4E9183620F0D3
:102B3C0007000E9BA06602930D9B01932D1A0C9B14
:102B4C0000932A464B4641462046FDF715FF054BA0
:102B5C0067659B6803B1DB6EE366284605B0BDE88C
:102B6C00F08300BF3C03002070B5224C224D86B090
:102B7C002646AE4204F130040AD300F06DFA1D4C27
:102B8C001E4EAC4220D306B0BDE8704000F078BABF
:102B9C0054F80C3C059354F8103C049354F8143C32
:102BAC00039354F8183C029354F81C3C019354F8CA
:102BBC00203C009354E90A2354E90C01FFF794FFDD
:102BCC0054F8303C5E65D3E7D4E90A23B3F1FF3FF8
:102BDC0008BFB2F1FF3F05D052EA0301206803D1D0
:102BEC0000F01CFA3034CCE73146183000F06EFBA4
:102BFC00F8E700BF044600000446000071420000E4
:102C0C0038B504464FF02003EFF3118583F3128897
:102C1C00BFF36F8F01F02AFB48B10022826701F0ED
:102C2C00D4FA29460748BDE8384000F0E5B9D4E9A4
:102C3C0002329A4218BF0133A36085F31188BFF3A7
:102C4C006F8F38BD8107002013B54FF02004EFF3D0
:102C5C00118184F31288BFF36F8F846844B1013CF7
:102C6C00846081F31188BFF36F8F002002B010BD18
:102C7C0052EA030406D181F31188BFF36F8F6FF012
:102C8C000F00F3E7CDE900230246024800F096F965
:102C9C00ECE700BF81070020C3897F2B12D80A4BB9
:102CAC001B6863B1094B90F90E201B689A4209DB33
:102CBC00437BDB0606D1064BC31A18BF012303F076
:102CCC00010070470023FAE7640300206003002032
:102CDC00C8000020044BC01A044BC0105843044BCE
:102CEC0001221A54704700BFC8010020ABAAAAAA3F
:102CFC008107002070B50E4B0E4C1E7C06EB460374
:102D0C0004EBC3040546204601F003FB0A4B0022EA
:102D1C0028469A55FFF7C0FF48B1084B08491A6876
:102D2C00013A2046D317BDE8704000F0CFBA70BD11
:102D3C003C030020C8010020810700206403002010
:102D4C00E12C000038B50D4D2B4653F8184F9C4222
:102D5C0000D004B9EC68AB6838B95A7BD20604D100
:102D6C00A26912B9DA897F2A05D89C4202D0204682
:102D7C00FFF7C0FF23466B6138BD00BF3C0300204A
:102D8C0070B590F90D20437B002A014604DA03F05C
:102D9C007F03437301F0DFF94B7B154A63F07F032C
:102DAC0010464B7350F8183FD469834208BF002378
:102DBC0023B9C1E900042160D1610CE091F90E50F6
:102DCC0093F90E60B5420ED0AE420CDD5868C1E9E5
:102DDC000030016059609068431A5842BDE8704059
:102DEC005841FFF7AFBF9C42E3D01B68E0E700BF40
:102DFC003C03002070B490F90D30427B002B29DB92
:102E0C00D30627D183692BBB134962F07F0242732F
:102E1C000A4652F8184F944218BF2346CC6923B97E
:102E2C00C0E900242060C8610CE090F90E5093F9C1
:102E3C000E60B5420AD0AE4208DD5A68C0E90032D5
:102E4C001060586070BC0020FFF77CBFA342E7D035
:102E5C001B68E4E770BC70473C03002008B590F990
:102E6C000D20437B002A014604DA03F07F034373F1
:102E7C0001F071F9044B9868431A58425841BDE867
:102E8C000840FFF75FBF00BF3C03002070B515463C
:102E9C001C46064601F071F9B4F1FF3F08BFB5F1CD
:102EAC00FF3F08D02A46234606F118000249BDE828
:102EBC00704000F00BBA70BD714200002DE9F0417A
:102ECC00002A437B0E460CBF1021082119420446F0
:102EDC000AD10B43DD0903F09F0211D1427308297B
:102EEC0014D00120FFF72EFF1B4B9B68A3422CD163
:102EFC00EFF305834BBB3046BDE8F041FDF792BCC8
:102F0C0003F01F03437301F026F9E8E7A36813B13C
:102F1C00204601F028F904F1180001F0FAF904F147
:102F2C0058074FF00008A56DBD42DAD0002DD8D05F
:102F3C00284601F018F905F1180001F0EAF9C5F876
:102F4C0078802846FFF756FFEDE786F31188BFF32C
:102F5C006F8FBDE8F08100BF3C03002038B54FF007
:102F6C002003EFF3118583F31288BFF36F8F104B9F
:102F7C00104A9C681068A04206D1FFF7BBFE85F38F
:102F8C001188BFF36F8F38BD00211B7C11600A4A7A
:102F9C00D35C002BF3D02046FFF77EFE0028EED04A
:102FAC00637BDB0602D12046FFF7EAFE2046E4E70E
:102FBC003C0300205C0300208107002070B50C4806
:102FCC000C4D86682E600C461146DDE904234FF04B
:102FDC002006EFF3118586F31288BFF36F8F80689C
:102FEC00FFF754FF2046BDE87040FDF71BBC00BF47
:102FFC003C0300205C03002049B9EFF3058030B995
:10300C00054B5A699B689A4201D0FDF70BBC81F3C2
:10301C001188BFF36F8F70473C03002010B54FF041
:10302C002002EFF3118482F31288BFF36F8F427B7F
:10303C00510704D484F31188BFF36F8F10BD22F0B5
:10304C0004024273FFF7D6FE21460248BDE8104049
:10305C00FFF7D2BF820700204FF02003EFF311815E
:10306C0083F31288BFF36F8F044B9A68D37B013BB9
:10307C00D37381F31188BFF36F8F70473C0300202B
:10308C0010B54FF02003EFF3118483F31288BFF3D4
:10309C006F8F084B9A68D37B0133D3730020FFF7F3
:1030AC0051FE84F31188BFF36F8FBDE8104001F01F
:1030BC0005B900BF3C030020024B03F11802C3E921
:1030CC00062270473C030020F8B54FF02003EFF3C5
:1030DC00118583F31288BFF36F8F19498868437B7E
:1030EC0003F07F03437301F036F88B685A7B084674
:1030FC0062F07F025A7350F8182FCC69824208BFD5
:10310C00002222B9C3E900042360CB610CE093F9DF
:10311C000E6092F90E70BE420ED0B7420CDD5168B3
:10312C00C3E900210B6053600120FFF70BFE28461A
:10313C00BDE8F840FDF776BBA242E3D01268E0E7A9
:10314C003C03002050EA01032DE9F04105460E46F0
:10315C0003D1FFF7B9FF00202CE0831C71F1FF3382
:10316C002ADB01F0ECF82C184FF02003EFF3118858
:10317C0083F31288BFF36F8F114F124BB86818602E
:10318C00FFF76CFEB86810492A463346183000F039
:10319C009DF8BA68537B43F0100353734046FDF718
:1031AC0041FB01F0CCF8201A63EB0303012873F107
:1031BC000003D0DBBDE8F0816FF00104241AD3E7E3
:1031CC003C0300205C03002071420000B1F1FF3F82
:1031DC0008BFB0F1FF3F08B506D1084B986801F065
:1031EC0004F84FF0FF3008BDFFF7ACFF4FF47A73D3
:1031FC0080FB0303C00B40EA4340F4E73C03002090
:10320C00014B9868704700BF3C03002008B5064886
:10321C00064A0749121A00F08AFFBDE80840054A21
:10322C000549064800F083BF00000020A6000020DE
:10323C00E447000000000000E4470000000000200C
:10324C00034B1B680BB9FEF7D7BC0020704700BFBF
:10325C006803002010B50E4B1C689C4204D1FFF78C
:10326C00EFFF6FF0004010BDFFF7EAFF002CF8D025
:10327C00D4E904321B1A62EBE072B3F1004F72F125
:10328C000001EEDA002AACBF18460020EBE700BFC5
:10329C009800002030B570B10B4B5B6898420AD097
:1032AC00036843B1D3E90421D0E90445121941EB79
:1032BC000501C3E90421D0E9003213605A600023F0
:1032CC00C0E9003330BD00BF98000020B3F1FF3FD0
:1032DC0008BFB2F1FF3FF8B504461D4616465CD058
:1032EC0081604FF02003EFF3118783F31288BFF353
:1032FC006F8F013275F1FF3324DA2D49D1E90020AB
:10330C006FF001039B1A4FF0FF3262EB00009E1B23
:10331C0060EB0500012E70F1000301DA012600209C
:10332C00C4E90460234ED6F800C07568B44508BFE4
:10333C004FF0000CBCF1000F0DD1C4E900652C60FE
:10334C0074601CE0FFF77CFF013645F10005361870
:10335C0045EBE070E4E7DCE90420D4E90431934266
:10336C0071EB000E1ADAD21ADCF8043060EB0100B3
:10337C00CCE90420C4E900C31C60CCF804403368D9
:10338C00B34206D09C4204D1FFF764FF0021FEF744
:10339C0005FC87F31188BFF36F8FF8BD9B1A61EBA7
:1033AC000001AC45C4E90431C7D0DCF800C0C1E76A
:1033BC00E0010020980000202DE9F84F4FF0200389
:1033CC00EFF3118C83F31288BFF36F8FDFF8B0A08B
:1033DC00DFF8B0902C4FC9F80000DAF80000002498
:1033EC00504508BF00200025D7E90021D9F800304E
:1033FC00E04680B3D0E9046C4FEAE37EB3427EEB47
:10340C000C0B05DAF61A6CEB0E04C0E9046422E02E
:10341C00B21841EBE671C0E90445C7E90021FFF79A
:10342C0039FF88F31188BFF36F8F836898474FF08B
:10343C002003EFF3118883F31288BFF36F8FD9F851
:10344C000030DAF800009B1B5045C446C9F8003028
:10345C00CAD1D7E900219A1841EBE3730024C7E9DC
:10346C000023C9F80040FFF7F5FE2146FEF796FB56
:10347C0088F31188BFF36F8FBDE8F84FFFF76EBD6F
:10348C009800002068030020E001002010B54FF0E8
:10349C002003EFF3118483F31288BFF36F8FFFF7D0
:1034AC00CFFE064A0346D2E90001181841EBE3713E
:1034BC0084F31188BFF36F8F10BD00BFE0010020B3
:1034CC00014800F07CBA00BFA24700002DE9F04F84
:1034DC008DB043680293837815469A07804640F175
:1034EC000D8100240E78002E00F00A81252E0BD0C1
:1034FC004B1C03930134029B4146304698470028ED
:10350C00C0F2F6800399EDE74E788B1C252E0393C1
:10351C00F0D00027B946BB46BBF11F0F38D8A6F137
:10352C002003102B0AD8DFE803F02A090930090917
:10353C00092109090928092D09091F00A6F13003E1
:10354C00092B33D92A2E37D11BF0400F55F8043BE9
:10355C0040F08280002BA7BF4BF0200B9946C3F1A3
:10356C0000094BF0280B01E04BF0010B039B13F807
:10357C00016B0393002ECFD130E04BF0020B4BF0DC
:10358C00040BF3E74BF0080BF0E74BF0100BEDE7F7
:10359C00BBF17F0F19D8A6F13003092BD2D81BF041
:1035AC00400F03D00A2101FB0737DFE70A2101FB9B
:1035BC0009394BF0200BD9E72E2E06D11BF0400F0A
:1035CC0040F09E804BF0400BD0E76C2E31D02BD8C6
:1035DC00682E36D06A2E3CD04C2E3AD0002F46F0B6
:1035EC002003B8BF2BF04002A3F16501BCBF1FFA4A
:1035FC0082FB0027022901D9612B2FD1073525F039
:10360C000705DFF8ACA2083507271BF0080F66D0BA
:10361C000AEB070B56465E4563D1A4EB0A0A06EB90
:10362C000A02A9EB07096FE1742E9FD07A2E9DD068
:10363C00D4E71BF0800F18BF4BF4007B4BF0800BD2
:10364C0094E71BF4807F18BF4BF4007B4BF4807B1A
:10365C008CE74BF4207B89E71F4687E7A6F16301D3
:10366C00122900F2F080DFE811F013004F00EE0099
:10367C00EE00EE00EE004F00EE00EE00EE00EE006D
:10368C00EE00FE00E900EE00EE001B00EE00AF00C5
:10369C0055F8043B8DF8183001270DF1180AB4E7E2
:1036AC0055F804AB834BBAF1000F08BF9A461BF0D8
:1036BC00400F14BF39464FF0FF31504600F043FE27
:1036CC000746A2E7029B41462020984700280FDBC3
:1036DC00013EB742F6D34C44A41BB14698E74E4684
:1036EC00F7E716F8010B029B41469847002892DA3F
:1036FC0098F8023043F0040388F802304FF0FF349E
:10370C0020460DB0BDE8F08F1BF0800F34D01BF4B9
:10371C00007F2CD0073525F00705AA4669685AF8B2
:10372C00080B2BF010050029ADB237DA404261EBE3
:10373C00410145F480650DF1180B0A235A4600F03F
:10374C000EFEA0EB0B0301936B0662D5019B25F0DB
:10375C0001019F4289B240F3A180002E00F09980B4
:10376C0015F0100240F09C80BB460D4623E0AA46A3
:10377C005AF8040BC117D4E7AA461BF4807F5AF8F9
:10378C00041B01D10846F5E71BF4007F15BF48B2B6
:10379C0008B241F3C01141F3C031C2E750EA010352
:1037AC00C9D11BF0400FC6D0002FC4D12BF0110291
:1037BC0095B2BB46019740F2064115EA01021CBFC7
:1037CC000BF1010B00222CE02BF010021FFA82FBF4
:1037DC000A231BF0800C49D01BF400711DBF073568
:1037EC0025F00705AA46AA461ABF5AF8080B6968BD
:1037FC005AF8040B50EA010545D12BF016051BF0C5
:10380C00400FADB242D0002F40D12BF0170295B231
:10381C00019715F0100248D0019B002E42D103F104
:10382C00010B29075AD4EB0706D5D9456FDD019951
:10383C00A9EB0B035F18CB465B4649E04BF0100B32
:10384C0010237826C5E7782B04D1C6F1780343F012
:10385C001003BEE7029B4146252098470028FFF63F
:10386C0047AF023447E608230026B2E7AA461BF40A
:10387C0080715AF8040BBDD01BF400711ABFC0B292
:10388C00614680B2B6E72BF0060295B20DF1180B2B
:10389C0054E725F01105ADB2BB468CE70D46B8E7F1
:1038AC003B460D4603F1020BBBE7DDF804B082E7A3
:1038BC00D9470000D2470000CDE904324146029BB3
:1038CC00202098470028FFF613AF049B059A01337C
:1038DC009945F1DCA4EB0B01CC189B460AB3029B77
:1038EC004146302098470028FFF602AF8EB90134CC
:1038FC002744019B391B994224DC1D465DBB019A70
:10390C00A9EB0B09224455461446914435E0019F1E
:10391C0092E7023441463046029B98470028E7DA8A
:10392C00E6E640F206410D42E2D015F0020F14BF5C
:10393C002B20202015F4806F04F10104414618BFA0
:10394C002D20E9E7029B414630209847002804F1DE
:10395C000104CEDACCE606AB013D4146585D029B34
:10396C0098470028CADAC3E6029B414620209847B4
:10397C00002804F10104FFF6BBAEA9EB0403002BF5
:10398C00F2DCBFE57047F0B4034600681979DB88B8
:10399C00066987683468DA0754BF43F4D01383F49C
:1039AC00B01301258D4023F48012DB074CBF2C4350
:1039BC00AC4334603B68F0BC1847002070470FB430
:1039CC0007B504A951F8040B0191FCF7B9FB03B03E
:1039DC005DF804EB04B0704700EBC1004088400870
:1039EC007047F8B50346FFF7F7FFB0FA80F0C0F167
:1039FC001F0003EB800CCA00DCF81060171D0C468E
:103A0C0006328DB256B9012101FA00F0D968014392
:103A1C00D960CCF81040DD539D52F8BDF100043153
:103A2C00585AD85303EBC0009E52C5805D52F4E740
:103A3C00043A2DE9F041CC1D114424F0070421F087
:103A4C0007010E1BF708B7FA87F2C2F12405AD0087
:103A5C004FF000080735C2F12002ED080460414622
:103A6C00A760C4F80C80920004F1100000F0DCFC9C
:103A7C006B0043F00103638004EBC5027B1B590010
:103A8C00A4F800805180A21924F83550A2F80280C5
:103A9C00A35304EBC70329465A8842F001025A800B
:103AAC002046BDE8F041FFF79CBF038B13F00703E2
:103ABC0005D10368002B0CBF002003207047022B9C
:103ACC0005D1408BB0FA80F0400980007047012B83
:103ADC0005D10368002B0CBF002005207047002087
:103AEC00704710B50C4600B111B96FF0150010BD40
:103AFC00081D00F095F80028F9D1A368032BF6D91E
:103B0C00F3E72DE9F0410D4607461946281D90466E
:103B1C001E4600F096F8044638B133464246294614
:103B2C003846A446BDE8F0416047BDE8F08110B4CA
:103B3C004FF02004EFF3118284F31288BFF36F8FE0
:103B4C00416110BC0121FCF72DBB38B50C46054674
:103B5C0058B151B10B6843B14B6833B11C220021F1
:103B6C0000F062FC2C61002038BD6FF01500FBE703
:103B7C0070B505460E46FFF7B4FF041E15DB4FF07B
:103B8C002003EFF3118283F31288BFF36F8F6B8BDB
:103B9C002C8B4FF6FF718B4204F0070407D182F394
:103BAC001188BFF36F8F6FF00A04204670BD022C92
:103BBC000CD101336B8382F31188BFF36F8F002319
:103BCC00224631462846FFF79CFFEEE7062C14D818
:103BDC00DFE804F004131313041A04000023336009
:103BEC006B683BB9C5E90066ACB902212846FCF705
:103BFC00D9FADAE71E606E60F6E782F31188BFF33C
:103C0C006F8F6FF00404D0E782F31188BFF36F8FCE
:103C1C006FF08504C9E782F31188BFF36F8FC4E797
:103C2C00034658B1426802F00302012A03D0032A6A
:103C3C0004D1026812B10020986070476FF0150033
:103C4C0070474268816002F00302032A4FF00002C1
:103C5C0003460CBF006810465A6070477047FEF769
:103C6C002DBE01460068FEF729BE08B5FCF7AEFB79
:103C7C00BDE80840FCF7DCBB00210120FFF7EFBFDB
:103C8C00202809D9B0F1004F08D80138B0FA80F0DB
:103C9C00C0F11F0040007047082070473E2070475D
:103CAC002DE9FF410E469846144605460027B742BB
:103CBC0020DA6868C8B1B8F1000F07D0431E18426B
:103CCC0016D11F2814D92A68134211D12B680193DD
:103CDC00FFF7D6FFAB6803430393E3B2072B07D878
:103CEC00204601A9FCF7F2FE013401370C35DEE762
:103CFC006FF01504204604B0BDE8F08108B5FCF760
:103D0C00C3FF002008BD0369C9B20C2201FB0233BA
:103D1C00186C00F0070070474FF02003EFF311828E
:103D2C0083F31288BFF36F8F036803F0C00343F073
:103D3C000203036082F31188BFF36F8F704770B575
:103D4C00C9B203694FF02004EFF3118584F3128894
:103D5C00BFF36F8F0C2606FB0134246C14F0C004E7
:103D6C0008D0A24206D085F31188BFF36F8F4FF0B5
:103D7C00FF3070BD06FB013301221A6485F31188F4
:103D8C00BFF36F8F436803EBC1035B689847002058
:103D9C00EFE78022FFF7D3BFF8B5069F0469C9B2DD
:103DAC004FF02005EFF3118685F31288BFF36F8F68
:103DBC000C2505FB0144256C05F0070CBCF1010F2B
:103DCC000CD1276486F31188BFF36F8FC4E90E23DF
:103DDC00436853F8313098470020F8BD05F0C00512
:103DEC00AF4286F31188BFF36F8F0CBF6FF0770073
:103DFC004FF0FF30F1E713B580240094FFF7CCFFB0
:103E0C0002B010BD10B40069CBB21C2403FB04003B
:103E1C00002110BC1047002000F0FAB81046FEF745
:103E2C00EFBE43685B68D3F810350B600020704719
:103E3C0043685B6802EA010021EA0201C3F8080545
:103E4C00C3F80C150020704743685B680020C3F86A
:103E5C000815704743685B680020C3F80C15704761
:103E6C0043685A68D2F8043521EA03000B40C2F8C3
:103E7C000805C2F80C350020704710B50369586866
:103E8C00F8B1884219D19C6808685860A14200D1E9
:103E9C009860002008602AB15A680A609A685960D4
:103EAC0002B99960002010E0814206D108682060B8
:103EBC0098688142EDD19C60EBE7044600680028CD
:103ECC00F2D1002AE8D16FF0150010BD30B543686F
:103EDC001360057A446804EBC504A34202D36FF067
:103EEC00010030BD5C798C4201D00833F0E7002032
:103EFC00F7E743681B68D3F88004C3F88004704765
:103F0C00436802691B68D3F8100150B15269002054
:103F1C0012780A70C3F81001D3F8102101221A602C
:103F2C0070474FF0FF30704702680346D2F85801D3
:103F3C0040B95B689B0706D4D2F82001003818BF43
:103F4C00012070470120704742681368D3F80413AE
:103F5C00C90518D5D3F82011A9B14FF02000EFF303
:103F6C00118180F31288BFF36F8FD3F8200130B129
:103F7C000020C3F82001D3F820010120D86081F380
:103F8C001188BFF36F8F5268D20615D54FF0200100
:103F9C00EFF3118281F31288BFF36F8FD3F85811AE
:103FAC0011B10021C3F800154FF48001C3F80813B8
:103FBC0082F31188BFF36F8F704700F150039B00A1
:103FCC009BB203F1804303F5883300221A601B680F
:103FDC00704708B50020FCF7B9FB4FF08053D3F8BD
:103FEC003001421C04BF4FF0704393F8E00F831F65
:103FFC00584258417047004700F087B8C00000F1A4
:10400C00804000F5F830C0F81015C0F81425704742
:10401C00FDF79EBF036803F01F025B0902600CBF33
:10402C004FF0A04000207047F7B5019001A8DDE9E2
:10403C00084716461D46FFF7EDFF019BB6F1000C35
:10404C0018BF4FF0010C00EB83000B1E18BF0123AF
:10405C00002D43EA4C0314BF4FF00C0C4FF0000C36
:10406C00002C43EA0C0314BF4FF4E06C4FF0000C2F
:10407C00002F43EA0C03D0F8002714BF4FF4403C48
:10408C004FF0000C43EA0C0322EA030301B1097858
:10409C000EB13678760019430DB12D78AD00314351
:1040AC000CB12478240229430FB13F783F040C4310
:1040BC003C43C0F8004703B0F0BD1FB50DF10F0332
:1040CC00019300238DF80F1000931A461946FFF741
:1040DC00ABFF05B05DF804FB024611F0010007D000
:1040EC004FF0A041D1F820351360C1F8203503B949
:1040FC0000207047FEF7F0B8FEF7CEB8FEF7AABB6B
:10410C0008B5FFF7FBFF002008BD08B1FCF7EEBDBA
:10411C007047704740B1C368587810F001001EBF5B
:10412C001878B0FA80F04009704700F07DB900F0C3
:10413C006DB9EFF30580003818BF0120704708B542
:10414C004FF02002EFF3118382F31288BFF36F8FCD
:10415C00FCF766FCF4E7D0E9003213605A600023E8
:10416C00C0E90033704708B5FFF7F5FF437B23F038
:10417C00020343730023836008BD38B504460D4623
:10418C00FEF76CFE637B43F002036373E5B1A5603D
:10419C002B689D4209D16B68C4E900531C606C60AC
:1041AC0012E06A689342F6D01B68002BF3D094F9A6
:1041BC000E2093F90E108A42F3D09142F1DD5A6829
:1041CC00C4E9003214605C6038BD10B54FF02003B8
:1041DC00EFF3118483F31288BFF36F8FFEF70AFE9F
:1041EC0084F31188BFF36F8F10BD10B504461830DF
:1041FC0000F08FF84FF02003EFF3118183F3128856
:10420C00BFF36F8F627B12F0100204D081F3118820
:10421C00BFF36F8F10BD2046BDE81040FEF74EBEB9
:10422C0038B504464FF02003EFF3118583F3128861
:10423C00BFF36F8F437B13F0280F0BD183680BB147
:10424C00FFF791FF637B51B903F0FB0363732046C7
:10425C00FEF7D0FD85F31188BFF36F8F38BD03F0E7
:10426C00EB03F3E701211838FFF7DABF38B54FF04D
:10427C002003EFF3118583F31288BFF36F8F04686B
:10428C00A0420DD034B12046FFF76DFF04F11800A9
:10429C0000F03FF885F31188BFF36F8F204638BDCF
:1042AC000024F7E7034620B9EFF305820AB9FCF7BF
:1042BC00B9BA83F31188BFF36F8F70474FF02003A7
:1042CC00EFF3118083F31288BFF36F8FFFF7EABF10
:1042DC004FF02002EFF3118182F31288BFF36F8F3E
:1042EC00027BD2070AD581F31188BFF36F8F404050
:1042FC0080F311884FF0040002DF7047437B1B07EB
:10430C0004D581F31188BFF36F8F70470122FEF73C
:10431C00D5BD10B54FF02002EFF3118482F3128853
:10432C00BFF36F8F03683BB1FEF7B4FF002084F33B
:10433C001188BFF36F8F10BD6FF01500F7E708B54C
:10434C00FFF7A4F808BD10B5024601448A42134693
:10435C0003D01C780132002CF8D1181A10BDF0B51E
:10436C00C3F137070446FFB203F01F031046082BB6
:10437C00E6B233D0102B3ED06508A40844EA817411
:10438C0045EAC1752D194FEA910242EB51022909F8
:10439C0041EA02716D1842EB1212290A41EA0261DC
:1043AC006D1842EB1222290C41EA02416D1842EBC6
:1043BC001242AD1842F10002EC0844EA4274D108F2
:1043CC0004EB8402A6EB4205EDB2092D0CD90134A5
:1043DC00A5F10A0541F10001EDB212E0E40844EA4E
:1043EC00417406F00705C908303554EA010200F89B
:1043FC00015BBCD1F0BD240944EA017406F00F0541
:10440C000909092D84BFED19EDB2EDE70A4491427B
:10441C0000F1FF3300D1704710B511F8014B03F8D0
:10442C00014F9142F9D110BD02440346934200D191
:10443C00704703F8011BF9E701480068704700005A
:04444C00E801002063
:10445000E10C000000000000B90D000090440000D5
:104460000D4100000000000069100000A44400009D
:10447000D5140000B844000019100000000000002E
:10448000451A000000000000BD0C00000000000004
:104490003C4700006046000070460000A00000207D
:1044A0001C0200204B4700008C460000A446000080
:1044B000A20000207002002061470000C8460000F2
:0C44C000FC460000A400002014000020B6
:1044CC00512100000340000000000000853C00006A
:1044DC00B8440000553F000000000000853C00007F
:1044EC0000000000853C000000000000853C00003E
:1044FC00F52600000340000000000000853C000091
:10450C0000000000853C000000000000853C00001D
:10451C0000000000853C000000000000853C00000D
:10452C0000000000853C000000000000853C0000FD
:10453C0000000000853C000000000000853C0000ED
:10454C0000000000853C000000000000D51A0000AF
:10455C0000000000853C000000000000853C0000CD
:10456C0000000000853C000000000000853C0000BD
:10457C0000000000853C000000000000853C0000AD
:10458C0000000000853C000000000000853C00009D
:10459C0000000000853C000000000000853C00008D
:1045AC0000000000853C000000000000853C00007D
:1045BC0000000000853C000000000000853C00006D
:1045CC0000000000853C000000000000853C00005D
:1045DC0000000000853C000000000000853C00004D
:1045EC0000000000853C000000000000853C00003D
:0845FC0000000000853C0000F6
:0C460400FFFFFFFFFFFFFFFFFFFFFFFFB6
:104610000338FDD870470000A44400001F000000CC
:10462000A444000011000100000000200000000070
:1046300000000B06020000003C46000000000000E5
:104640002D4700002400020700000020354700002D
:104650001E000B11410D0000110D000000000000B4
:10466000610E0000850D0000F90E0000233E0000E1
:10467000C50E00009F3D0000033E0000000000004A
:10468000133D00000000000000000000FFFFFFFFDE
:10469000000000500000000000000000006000402A
:1046A00000000000ED1000002F3E00003D3E000025
:1046B000553E0000613E00006D3E00006D1200009E
:1046C000873E0000000000000020004002000000C3
:1046D00000000000D846000000200040E446000032
:1046E00001000000EC46000004000000060000008D
:1046F0000800010005000200070003000D3F000054
:1047000019170000FF3E0000504400005044000014
:104710008044000088440000904400009044000061
:1047200048656C6C6F20576F726C642100464C4179
:1047300053485F30005352414D5F3000636C6F63EC
:104740006B403430303030303030006770696F404B
:1047500035303030303030300000010203040506BF
:1047600007756172744034303030323030300000C0
:104770000000000100000001010000010101010032
:104780000000005465726D696E616C0000000000ED
:10479000000054545220524547474553006D61690B
:1047A0006E002A2A2A20426F6F74696E67206E524B
:1047B0004620436F6E6E6563742053444B207633FE
:1047C0002E352E39392D6E6373312D31202A2A2A48
:1047D0000A00286E756C6C29002A666C6F61742A59
:0447E00000000000D5
:1047E400C739000000000000093D0000000000007F
:1047F400000000000000000000C2010000010300EE
:10480400000000006F0300206E0300200000000081
:104814000000000000000000000000000000000094
:104824000000000000000000000000000000000084
:104834000000000000000000000000000000000074
:104844000000000000000000000000000000000064
:104854000000000000000000000000000000000054
:1048640008000000FF00000000000000010000003C
:1048740000000000FFFF0F009800002098000020B7
:064884000000000000002E
:04488A0015E015E040
:0400000300000705ED
:00000001FF
